{
  "contractName": "Escrow",
  "abi": [
    {
      "inputs": [
        {
          "internalType": "uint256",
          "name": "commission",
          "type": "uint256"
        }
      ],
      "stateMutability": "nonpayable",
      "type": "constructor"
    },
    {
      "anonymous": false,
      "inputs": [
        {
          "indexed": false,
          "internalType": "address",
          "name": "from",
          "type": "address"
        },
        {
          "indexed": false,
          "internalType": "uint256",
          "name": "value",
          "type": "uint256"
        }
      ],
      "name": "Deposit",
      "type": "event"
    },
    {
      "anonymous": false,
      "inputs": [
        {
          "indexed": false,
          "internalType": "address",
          "name": "payee",
          "type": "address"
        },
        {
          "indexed": false,
          "internalType": "uint256",
          "name": "project",
          "type": "uint256"
        },
        {
          "indexed": false,
          "internalType": "uint256",
          "name": "value",
          "type": "uint256"
        }
      ],
      "name": "Withdraw",
      "type": "event"
    },
    {
      "inputs": [
        {
          "internalType": "uint256",
          "name": "projectNumber",
          "type": "uint256"
        }
      ],
      "name": "deposit",
      "outputs": [],
      "stateMutability": "payable",
      "type": "function"
    },
    {
      "inputs": [
        {
          "internalType": "uint256",
          "name": "projectNumber",
          "type": "uint256"
        },
        {
          "internalType": "address",
          "name": "payee",
          "type": "address"
        }
      ],
      "name": "withdraw",
      "outputs": [],
      "stateMutability": "nonpayable",
      "type": "function"
    }
  ],
  "bytecode": "0x608060405234801561001057600080fd5b50604051610c33380380610c3383398181016040528101906100329190610094565b336000806101000a81548173ffffffffffffffffffffffffffffffffffffffff021916908373ffffffffffffffffffffffffffffffffffffffff16021790555080600281905550506100e7565b60008151905061008e816100d0565b92915050565b6000602082840312156100aa576100a96100cb565b5b60006100b88482850161007f565b91505092915050565b6000819050919050565b600080fd5b6100d9816100c1565b81146100e457600080fd5b50565b610b3d806100f66000396000f3fe6080604052600436106100285760003560e01c8062f714ce1461002d578063b6b55f2514610056575b600080fd5b34801561003957600080fd5b50610054600480360381019061004f9190610562565b610072565b005b610070600480360381019061006b9190610535565b6102d6565b005b60008054906101000a900473ffffffffffffffffffffffffffffffffffffffff1673ffffffffffffffffffffffffffffffffffffffff163373ffffffffffffffffffffffffffffffffffffffff1614610100576040517f08c379a00000000000000000000000000000000000000000000000000000000081526004016100f7906107ca565b60405180910390fd5b60008211610143576040517f08c379a000000000000000000000000000000000000000000000000000000000815260040161013a9061072a565b60405180910390fd5b600073ffffffffffffffffffffffffffffffffffffffff168173ffffffffffffffffffffffffffffffffffffffff1614156101b3576040517f08c379a00000000000000000000000000000000000000000000000000000000081526004016101aa906107aa565b60405180910390fd5b6000600160008481526020019081526020016000205411610209576040517f08c379a00000000000000000000000000000000000000000000000000000000081526004016102009061074a565b60405180910390fd5b600061025260646102446001600087815260200190815260200160002054600254606461023691906108e7565b6103d590919063ffffffff16565b6103eb90919063ffffffff16565b9050600060016000858152602001908152602001600020819055507ff279e6a1f5e320cca91135676d9cb6e44ca8a08c0b88342bcdb1144f6511b5688284836040516102a0939291906106f3565b60405180910390a16102d1818373ffffffffffffffffffffffffffffffffffffffff1661040190919063ffffffff16565b505050565b60003411610319576040517f08c379a00000000000000000000000000000000000000000000000000000000081526004016103109061074a565b60405180910390fd5b6000811161035c576040517f08c379a00000000000000000000000000000000000000000000000000000000081526004016103539061072a565b60405180910390fd5b7fe1fffcc4923d04b559f4d29a8bfc6cda04eb5b0d3c460751c2402c5c5cc9109c333460405161038d9291906106ca565b60405180910390a16103bb3460016000848152602001908152602001600020546104f590919063ffffffff16565b600160008381526020019081526020016000208190555050565b600081836103e3919061088d565b905092915050565b600081836103f9919061085c565b905092915050565b80471015610444576040517f08c379a000000000000000000000000000000000000000000000000000000000815260040161043b9061078a565b60405180910390fd5b60008273ffffffffffffffffffffffffffffffffffffffff168260405161046a906106b5565b60006040518083038185875af1925050503d80600081146104a7576040519150601f19603f3d011682016040523d82523d6000602084013e6104ac565b606091505b50509050806104f0576040517f08c379a00000000000000000000000000000000000000000000000000000000081526004016104e79061076a565b60405180910390fd5b505050565b600081836105039190610806565b905092915050565b60008135905061051a81610ad9565b92915050565b60008135905061052f81610af0565b92915050565b60006020828403121561054b5761054a6109b5565b5b600061055984828501610520565b91505092915050565b60008060408385031215610579576105786109b5565b5b600061058785828601610520565b92505060206105988582860161050b565b9150509250929050565b6105ab8161091b565b82525050565b60006105be6008836107f5565b91506105c9826109ba565b602082019050919050565b60006105e16006836107f5565b91506105ec826109e3565b602082019050919050565b6000610604603a836107f5565b915061060f82610a0c565b604082019050919050565b6000610627601d836107f5565b915061063282610a5b565b602082019050919050565b600061064a6000836107ea565b915061065582610a84565b600082019050919050565b600061066d6008836107f5565b915061067882610a87565b602082019050919050565b60006106906006836107f5565b915061069b82610ab0565b602082019050919050565b6106af8161094d565b82525050565b60006106c08261063d565b9150819050919050565b60006040820190506106df60008301856105a2565b6106ec60208301846106a6565b9392505050565b600060608201905061070860008301866105a2565b61071560208301856106a6565b61072260408301846106a6565b949350505050565b60006020820190508181036000830152610743816105b1565b9050919050565b60006020820190508181036000830152610763816105d4565b9050919050565b60006020820190508181036000830152610783816105f7565b9050919050565b600060208201905081810360008301526107a38161061a565b9050919050565b600060208201905081810360008301526107c381610660565b9050919050565b600060208201905081810360008301526107e381610683565b9050919050565b600081905092915050565b600082825260208201905092915050565b60006108118261094d565b915061081c8361094d565b9250827fffffffffffffffffffffffffffffffffffffffffffffffffffffffffffffffff0382111561085157610850610957565b5b828201905092915050565b60006108678261094d565b91506108728361094d565b92508261088257610881610986565b5b828204905092915050565b60006108988261094d565b91506108a38361094d565b9250817fffffffffffffffffffffffffffffffffffffffffffffffffffffffffffffffff04831182151516156108dc576108db610957565b5b828202905092915050565b60006108f28261094d565b91506108fd8361094d565b9250828210156109105761090f610957565b5b828203905092915050565b60006109268261092d565b9050919050565b600073ffffffffffffffffffffffffffffffffffffffff82169050919050565b6000819050919050565b7f4e487b7100000000000000000000000000000000000000000000000000000000600052601160045260246000fd5b7f4e487b7100000000000000000000000000000000000000000000000000000000600052601260045260246000fd5b600080fd5b7f2170726f6a656374000000000000000000000000000000000000000000000000600082015250565b7f2176616c75650000000000000000000000000000000000000000000000000000600082015250565b7f416464726573733a20756e61626c6520746f2073656e642076616c75652c207260008201527f6563697069656e74206d61792068617665207265766572746564000000000000602082015250565b7f416464726573733a20696e73756666696369656e742062616c616e6365000000600082015250565b50565b7f2161646472657373000000000000000000000000000000000000000000000000600082015250565b7f216f776e65720000000000000000000000000000000000000000000000000000600082015250565b610ae28161091b565b8114610aed57600080fd5b50565b610af98161094d565b8114610b0457600080fd5b5056fea26469706673582212206f0d86e22cd1670e008ab958d739a73d31ba2608413d978fb3ac0ca0d502692464736f6c63430008060033",
  "immutableReferences": {},
  "source": "// SPDX-License-Identifier: MIT\r\npragma solidity ^0.8.6;\r\n\r\nimport \"@openzeppelin/contracts/utils/math/SafeMath.sol\";\r\nimport \"@openzeppelin/contracts/utils/Address.sol\";\r\n\r\n/// @title A contract which acts as a middleman for payments (Escrow)\r\n/// @author Nima Ghazanfari\r\n/// @notice This contract saves the fees for requested demands coming from the web interface\r\n/// @dev Each address has a separate payment for the fees of a requested task\r\ncontract Escrow {\r\n    using SafeMath for uint256;\r\n    using Address for address payable;\r\n\r\n    address _owner; //the owner of the contract\r\n    mapping(uint256 => uint256) _deposits; // project number => amount\r\n    uint256 _commission;\r\n\r\n    event Deposit(address from, uint256 value);\r\n    event Withdraw(address payee, uint256 project, uint256 value);\r\n\r\n    constructor(uint256 commission) {\r\n        _owner = msg.sender;\r\n        _commission = commission;\r\n    }\r\n\r\n    modifier onlyOwner() {\r\n        require(msg.sender == _owner, \"!owner\");\r\n        _;\r\n    }\r\n\r\n    function deposit(uint256 projectNumber) external payable {\r\n        require(msg.value > 0, \"!value\");\r\n        require(projectNumber > 0, \"!project\");\r\n\r\n        emit Deposit(msg.sender, msg.value);\r\n        _deposits[projectNumber] = _deposits[projectNumber].add(msg.value);\r\n    }\r\n\r\n    function withdraw(uint256 projectNumber, address payee) external onlyOwner {\r\n        require(projectNumber > 0, \"!project\");\r\n        require(payee != address(0), \"!address\");\r\n        require(_deposits[projectNumber] > 0, \"!value\");\r\n\r\n        uint256 value = (100 - _commission).mul(_deposits[projectNumber]).div(100);\r\n        _deposits[projectNumber] = 0;\r\n        emit Withdraw(payee, projectNumber, value);\r\n        payable(payee).sendValue(value);\r\n    }\r\n}\r\n",
  "sourcePath": "C:\\Users\\Administrator\\Desktop\\capstone\\blockchain\\contracts\\Escrow.sol",
  "compiler": {
    "name": "solc",
    "version": "0.8.6+commit.11564f7e.Emscripten.clang"
  },
  "schemaVersion": "3.4.3",
  "updatedAt": "2021-08-20T23:10:32.240Z",
  "devdoc": {
    "author": "Nima Ghazanfari",
    "details": "Each address has a separate payment for the fees of a requested task",
    "kind": "dev",
    "methods": {},
    "title": "A contract which acts as a middleman for payments (Escrow)",
    "version": 1
  },
  "userdoc": {
    "kind": "user",
    "methods": {},
    "notice": "This contract saves the fees for requested demands coming from the web interface",
    "version": 1
  }
}