{
  "contractName": "Escrow",
  "abi": [
    {
      "inputs": [
        {
          "internalType": "uint256",
          "name": "commission",
          "type": "uint256"
        }
      ],
      "stateMutability": "nonpayable",
      "type": "constructor"
    },
    {
      "anonymous": false,
      "inputs": [
        {
          "indexed": false,
          "internalType": "address",
          "name": "from",
          "type": "address"
        },
        {
          "indexed": false,
          "internalType": "uint256",
          "name": "value",
          "type": "uint256"
        }
      ],
      "name": "Deposit",
      "type": "event"
    },
    {
      "anonymous": false,
      "inputs": [
        {
          "indexed": false,
          "internalType": "address",
          "name": "payee",
          "type": "address"
        },
        {
          "indexed": false,
          "internalType": "uint256",
          "name": "project",
          "type": "uint256"
        },
        {
          "indexed": false,
          "internalType": "uint256",
          "name": "value",
          "type": "uint256"
        }
      ],
      "name": "Withdraw",
      "type": "event"
    },
    {
      "inputs": [
        {
          "internalType": "uint256",
          "name": "projectNumber",
          "type": "uint256"
        }
      ],
      "name": "deposit",
      "outputs": [],
      "stateMutability": "payable",
      "type": "function",
      "payable": true
    },
    {
      "inputs": [
        {
          "internalType": "uint256",
          "name": "projectNumber",
          "type": "uint256"
        },
        {
          "internalType": "address",
          "name": "payee",
          "type": "address"
        }
      ],
      "name": "withdraw",
      "outputs": [],
      "stateMutability": "nonpayable",
      "type": "function"
    },
    {
      "inputs": [],
      "name": "claimOwnerStake",
      "outputs": [],
      "stateMutability": "nonpayable",
      "type": "function"
    }
  ],
  "bytecode": "0x608060405234801561001057600080fd5b50604051610d36380380610d3683398181016040528101906100329190610094565b336000806101000a81548173ffffffffffffffffffffffffffffffffffffffff021916908373ffffffffffffffffffffffffffffffffffffffff16021790555080600281905550506100e7565b60008151905061008e816100d0565b92915050565b6000602082840312156100aa576100a96100cb565b5b60006100b88482850161007f565b91505092915050565b6000819050919050565b600080fd5b6100d9816100c1565b81146100e457600080fd5b50565b610c40806100f66000396000f3fe6080604052600436106100335760003560e01c8062f714ce14610038578063a15ad7fb14610061578063b6b55f2514610078575b600080fd5b34801561004457600080fd5b5061005f600480360381019061005a919061070b565b610094565b005b34801561006d57600080fd5b50610076610384565b005b610092600480360381019061008d91906106de565b61055d565b005b60008054906101000a900473ffffffffffffffffffffffffffffffffffffffff1673ffffffffffffffffffffffffffffffffffffffff163373ffffffffffffffffffffffffffffffffffffffff1614610122576040517f08c379a000000000000000000000000000000000000000000000000000000000815260040161011990610933565b60405180910390fd5b60008211610165576040517f08c379a000000000000000000000000000000000000000000000000000000000815260040161015c906108d3565b60405180910390fd5b600073ffffffffffffffffffffffffffffffffffffffff168173ffffffffffffffffffffffffffffffffffffffff1614156101d5576040517f08c379a00000000000000000000000000000000000000000000000000000000081526004016101cc90610913565b60405180910390fd5b600060016000848152602001908152602001600020541161022b576040517f08c379a0000000000000000000000000000000000000000000000000000000008152600401610222906108f3565b60405180910390fd5b60006102746064610266600160008781526020019081526020016000205460025460646102589190610a50565b61065c90919063ffffffff16565b61067290919063ffffffff16565b905061029c81600160008681526020019081526020016000205461068890919063ffffffff16565b600360008282546102ad919061096f565b92505081905550600060016000858152602001908152602001600020819055507ff279e6a1f5e320cca91135676d9cb6e44ca8a08c0b88342bcdb1144f6511b5688284836040516103009392919061089c565b60405180910390a160008273ffffffffffffffffffffffffffffffffffffffff168260405161032e90610827565b60006040518083038185875af1925050503d806000811461036b576040519150601f19603f3d011682016040523d82523d6000602084013e610370565b606091505b505090508061037e57600080fd5b50505050565b60008054906101000a900473ffffffffffffffffffffffffffffffffffffffff1673ffffffffffffffffffffffffffffffffffffffff163373ffffffffffffffffffffffffffffffffffffffff1614610412576040517f08c379a000000000000000000000000000000000000000000000000000000000815260040161040990610933565b60405180910390fd5b600060035411610457576040517f08c379a000000000000000000000000000000000000000000000000000000000815260040161044e906108f3565b60405180910390fd5b6000600354905060006003819055507ff279e6a1f5e320cca91135676d9cb6e44ca8a08c0b88342bcdb1144f6511b56860008054906101000a900473ffffffffffffffffffffffffffffffffffffffff166000836040516104ba9392919061083c565b60405180910390a160008060009054906101000a900473ffffffffffffffffffffffffffffffffffffffff1673ffffffffffffffffffffffffffffffffffffffff168260405161050990610827565b60006040518083038185875af1925050503d8060008114610546576040519150601f19603f3d011682016040523d82523d6000602084013e61054b565b606091505b505090508061055957600080fd5b5050565b600034116105a0576040517f08c379a0000000000000000000000000000000000000000000000000000000008152600401610597906108f3565b60405180910390fd5b600081116105e3576040517f08c379a00000000000000000000000000000000000000000000000000000000081526004016105da906108d3565b60405180910390fd5b7fe1fffcc4923d04b559f4d29a8bfc6cda04eb5b0d3c460751c2402c5c5cc9109c3334604051610614929190610873565b60405180910390a161064234600160008481526020019081526020016000205461069e90919063ffffffff16565b600160008381526020019081526020016000208190555050565b6000818361066a91906109f6565b905092915050565b6000818361068091906109c5565b905092915050565b600081836106969190610a50565b905092915050565b600081836106ac919061096f565b905092915050565b6000813590506106c381610bdc565b92915050565b6000813590506106d881610bf3565b92915050565b6000602082840312156106f4576106f3610b30565b5b6000610702848285016106c9565b91505092915050565b6000806040838503121561072257610721610b30565b5b6000610730858286016106c9565b9250506020610741858286016106b4565b9150509250929050565b61075481610a84565b82525050565b61076381610ac0565b82525050565b600061077660088361095e565b915061078182610b35565b602082019050919050565b600061079960068361095e565b91506107a482610b5e565b602082019050919050565b60006107bc600083610953565b91506107c782610b87565b600082019050919050565b60006107df60088361095e565b91506107ea82610b8a565b602082019050919050565b600061080260068361095e565b915061080d82610bb3565b602082019050919050565b61082181610ab6565b82525050565b6000610832826107af565b9150819050919050565b6000606082019050610851600083018661074b565b61085e602083018561075a565b61086b6040830184610818565b949350505050565b6000604082019050610888600083018561074b565b6108956020830184610818565b9392505050565b60006060820190506108b1600083018661074b565b6108be6020830185610818565b6108cb6040830184610818565b949350505050565b600060208201905081810360008301526108ec81610769565b9050919050565b6000602082019050818103600083015261090c8161078c565b9050919050565b6000602082019050818103600083015261092c816107d2565b9050919050565b6000602082019050818103600083015261094c816107f5565b9050919050565b600081905092915050565b600082825260208201905092915050565b600061097a82610ab6565b915061098583610ab6565b9250827fffffffffffffffffffffffffffffffffffffffffffffffffffffffffffffffff038211156109ba576109b9610ad2565b5b828201905092915050565b60006109d082610ab6565b91506109db83610ab6565b9250826109eb576109ea610b01565b5b828204905092915050565b6000610a0182610ab6565b9150610a0c83610ab6565b9250817fffffffffffffffffffffffffffffffffffffffffffffffffffffffffffffffff0483118215151615610a4557610a44610ad2565b5b828202905092915050565b6000610a5b82610ab6565b9150610a6683610ab6565b925082821015610a7957610a78610ad2565b5b828203905092915050565b6000610a8f82610a96565b9050919050565b600073ffffffffffffffffffffffffffffffffffffffff82169050919050565b6000819050919050565b6000610acb82610ab6565b9050919050565b7f4e487b7100000000000000000000000000000000000000000000000000000000600052601160045260246000fd5b7f4e487b7100000000000000000000000000000000000000000000000000000000600052601260045260246000fd5b600080fd5b7f2170726f6a656374000000000000000000000000000000000000000000000000600082015250565b7f2176616c75650000000000000000000000000000000000000000000000000000600082015250565b50565b7f2161646472657373000000000000000000000000000000000000000000000000600082015250565b7f216f776e65720000000000000000000000000000000000000000000000000000600082015250565b610be581610a84565b8114610bf057600080fd5b50565b610bfc81610ab6565b8114610c0757600080fd5b5056fea2646970667358221220dcb1f74e1179c3a4bf192a6ef63373488b4b632549ad4ddeffeadf55da2ad35364736f6c63430008060033",
  "immutableReferences": {},
  "source": "// SPDX-License-Identifier: MIT\r\npragma solidity ^0.8.6;\r\n\r\nimport \"@openzeppelin/contracts/utils/math/SafeMath.sol\";\r\n\r\n/// @title A contract which acts as a middleman for payments (Escrow)\r\n/// @author Nima Ghazanfari\r\n/// @notice This contract saves the fees for requested demands coming from the web interface\r\n/// @dev Each address has a separate payment for the fees of a requested task\r\ncontract Escrow {\r\n    using SafeMath for uint256;\r\n\r\n    address _owner; //the owner of the contract\r\n    mapping(uint256 => uint256) _deposits; // project number => amount\r\n    uint256 _commission; //the perecent in which the owner will receive benefit\r\n    uint256 _totalStake; //the total amount of ethers the owner has\r\n\r\n    event Deposit(address from, uint256 value);\r\n    event Withdraw(address payee, uint256 project, uint256 value);\r\n\r\n    constructor(uint256 commission) {\r\n        _owner = msg.sender;\r\n        _commission = commission;\r\n    }\r\n\r\n    modifier onlyOwner() {\r\n        require(msg.sender == _owner, \"!owner\");\r\n        _;\r\n    }\r\n\r\n    function deposit(uint256 projectNumber) external payable {\r\n        require(msg.value > 0, \"!value\");\r\n        require(projectNumber > 0, \"!project\");\r\n\r\n        emit Deposit(msg.sender, msg.value);\r\n        _deposits[projectNumber] = _deposits[projectNumber].add(msg.value);\r\n    }\r\n\r\n    function withdraw(uint256 projectNumber, address payee) external onlyOwner {\r\n        require(projectNumber > 0, \"!project\");\r\n        require(payee != address(0), \"!address\");\r\n        require(_deposits[projectNumber] > 0, \"!value\");\r\n\r\n        uint256 value = (100 - _commission).mul(_deposits[projectNumber]).div(100);\r\n        _totalStake += _deposits[projectNumber].sub(value);\r\n        _deposits[projectNumber] = 0;\r\n        emit Withdraw(payee, projectNumber, value);\r\n        (bool success, ) = payable(payee).call{value: value}(\"\");\r\n        require(success);\r\n    }\r\n\r\n    function claimOwnerStake() external onlyOwner{\r\n        require(_totalStake > 0, \"!value\");\r\n        uint256 value = _totalStake;\r\n        _totalStake = 0;\r\n        emit Withdraw(_owner, 0, value);\r\n        (bool success, ) = payable(_owner).call{value: value}(\"\");\r\n        require(success);\r\n    }\r\n}\r\n",
  "sourcePath": "C:\\Users\\Administrator\\Desktop\\capstone\\blockchain\\contracts\\Escrow.sol",
  "compiler": {
    "name": "solc",
    "version": "0.8.6+commit.11564f7e.Emscripten.clang"
  },
  "schemaVersion": "3.4.3",
  "updatedAt": "2021-08-23T02:08:49.122Z",
  "networkType": "ethereum",
  "devdoc": {
    "author": "Nima Ghazanfari",
    "details": "Each address has a separate payment for the fees of a requested task",
    "kind": "dev",
    "methods": {},
    "title": "A contract which acts as a middleman for payments (Escrow)",
    "version": 1
  },
  "userdoc": {
    "kind": "user",
    "methods": {},
    "notice": "This contract saves the fees for requested demands coming from the web interface",
    "version": 1
  }
}